:020000040000FA
:0400000007EF00F016
:0A0008007482B4ED0CF077EF0CF0F9
:1010000000436F756E743A202564000021C039F0EA
:1010100022C03AF023C03BF024C03CF025C03DF094
:1010200026C03EF027C03FF028C040F040AE02D0BE
:10103000010E01D0000E376E386A37503810D8B420
:1010400010D0401E3F1E3E1E3D1E3C1E3B1E3A1E43
:10105000396C000E3A223B223C223D223E223F22A6
:1010600040226EAE6F926EBE05D06E5008E16D04E8
:10107000D8B005D0000E346E010E336E04D06DC0B2
:1010800033F06EC034F06BC035F06CC036F03750C2
:101090003810D8A402D06FA403D03506D8A03606E5
:1010A000000E426E1F0E416E000E00019F6F7CD03D
:1010B0004106D8A04206800E4124D96E000E42207F
:1010C000DA6E39C001F03AC002F03BC003F03CC018
:1010D00004F03DC005F03EC006F03FC007F040C040
:1010E00008F00A0E096E000E0A6E000E0B6E000E5E
:1010F0000C6E000E0D6E000E0E6E000E0F6E000ECA
:10110000106E8BEC0AF001C029F002C02AF003C077
:101110002BF004C02CF005C02DF006C02EF007C047
:101120002FF008C030F029C013F02BC014F05EEC93
:101130000CF01350300FDF6E3306D8A0340635069E
:10114000D8A0360639C001F03AC002F03BC003F027
:101150003CC004F03DC005F03EC006F03FC007F0C3
:1011600040C008F00A0E096E000E0A6E000E0B6EEB
:10117000000E0C6E000E0D6E000E0E6E000E0F6E49
:10118000000E106EE7EC09F001C039F002C03AF031
:1011900003C03BF004C03CF005C03DF006C03EF08B
:1011A00007C03FF008C040F042BE1FD0425003E1EC
:1011B0004104D8A01AD039503A103B103C103D10D1
:1011C0003E103F104010D8A473D734BE05D0345021
:1011D00002E13304D8B06CD736BE07D0365003E1F5
:1011E0003504D8A002D06FB263D737503810D8A4D6
:1011F00002D06FA417D04106D8A04206375038104D
:10120000D8A404D0000E326E2B0E03D0000E326E26
:101210002D0E316E800E4124D96E000E4220DA6E02
:1012200031C0DFFF1FC014F020C015F0800E412434
:10123000166E000E4220176E35C018F036C019F039
:101240001DEC0BF014C01FF015C020F0120045C0BB
:10125000D9FF46C0DAFFDECFF6FFDDCFF7FF08008B
:10126000F550250AD8A499D045C0D9FF46C0DAFF69
:10127000DE2A000EDD22000E6C6E000E6B6E6BC05F
:101280006FF06CC070F06D686E6845C0D9FF46C0E5
:10129000DAFFDECFF6FFDDCFF7FF0800F550640A76
:1012A000D8B40DD045C0D9FF46C0DAFFDECFF6FF77
:1012B000DDCFF7FF0800F550690AD8A43FD045C03C
:1012C000D9FF46C0DAFFDE2A000EDD2247C0D9FF73
:1012D00048C0DAFFDFCF49F0020EDE26DFCF4AF04A
:1012E000000EDD2249C0D9FF4AC0DAFFDECF4BF045
:1012F000DDCF4CF0000E4CBEFF0E4D6E4E6E4F6EAD
:10130000506E516E526E43C01FF044C020F04BC06F
:1013100021F04CC022F04DC023F04EC024F04FC04D
:1013200025F050C026F051C027F052C028F006EC3E
:1013300008F01FC043F020C044F0120045C0D9FFA0
:1013400046C0DAFFDECFF6FFDDCFF7FF0800F5502D
:10135000250AD8A416D045C0D9FF46C0DAFFDE2A38
:10136000000EDD22000E056E250E046E43C006F051
:1013700044C007F068EC0BF0000E446E010E436EA3
:10138000120045C0D9FF46C0DAFFDE2A000EDD227A
:10139000000E446E000E436E120045C0D9FF46C0D9
:1013A000DAFFDECFF6FFDDCFF7FF0800F550046E61
:1013B000056A43C006F044C007F068EC0BF045C076
:1013C000D9FF46C0DAFFDE2A000EDD22D5D7000E97
:1013D000126E10AE12D0101E0F1E0E1E0D1E0C1E11
:1013E0000B1E0A1E096C000E0A220B220C220D2273
:1013F0000E220F221022010E126E08AE12D0081E0D
:10140000071E061E051E041E031E021E016C000E92
:101410000222032204220522062207220822010EAC
:10142000121A20EE13F0070EDE6AE806FDE20950FC
:101430000A100B100C100D100E100F101010D8B455
:1014400046D0010E116E0AD0D89009360A360B36F6
:101450000C360D360E360F361036112A10AEF4D774
:10146000D890133614361536163617361836193600
:101470001A360950015C0A5002580B5003580C50A0
:1014800004580D5005580E5006580F50075810506C
:101490000858D8A011D00950015E0A50025A0B50CA
:1014A000035A0C50045A0D50055A0E50065A0F504C
:1014B000075A1050085A1380D89010320F320E324B
:1014C0000D320C320B320A320932112EC9D71250AA
:1014D000D8B410D01A1E191E181E171E161E151E5F
:1014E000141E136C000E1422152216221722182225
:1014F00019221A2213C001F014C002F015C003F023
:1015000016C004F017C005F018C006F019C007F0A7
:101510001AC008F01200000E126E08AE12D0081E9B
:10152000071E061E051E041E031E021E016C000E71
:101530000222032204220522062207220822010E8B
:10154000126E10AE10D0101E0F1E0E1E0D1E0C1EA1
:101550000B1E0A1E096C000E0A220B220C220D2201
:101560000E220F22102209500A100B100C100D1021
:101570000E100F101010D8B43CD0010E116E0AD00E
:10158000D89009360A360B360C360D360E360F3625
:101590001036112A10AEF4D70950015C0A500258D7
:1015A0000B5003580C5004580D5005580E50065857
:1015B0000F50075810500858D8A010D00950015E9D
:1015C0000A50025A0B50035A0C50045A0D50055A37
:1015D0000E50065A0F50075A1050085AD890103221
:1015E0000F320E320D320C320B320A320932112E0A
:1015F000D3D71250D8B410D0081E071E061E051EE1
:10160000041E031E021E016C000E0222032204228D
:10161000052206220722082201C001F002C002F0C2
:1016200003C003F004C004F005C005F006C006F0D6
:1016300007C007F008C008F012006FA00AD016C05B
:101640000DF017C00EF014C00FF015C010F042ECF2
:101650000CF019BE05D018C01DF019C01EF004D042
:10166000000E1E6E000E1D6E000E1C6E000E1B6E18
:101670000CD0000E056E200E046E14C006F015C0CE
:1016800007F068EC0BF01B4A1C2A1D501B5C1C5019
:10169000800A1A6E1E50800A1A58D8A0EAD76FB076
:1016A0000AD016C00DF017C00EF014C00FF015C010
:1016B00010F042EC0CF016C001F017C002F08CECF8
:1016C0000CF01D500124146E1E500220156E1200E5
:1016D00006500710D8B404D006500710D8A404D080
:1016E0000450BFEC0CF0120020EE04F00650D92696
:1016F0000750DA22DE50DE10D8B416D020EE04F007
:101700000650D9260750DA2210EE02F00650E126E4
:101710000750E222DE50E65CE650800A0C6EDE5096
:10172000800A0C58D8B0120020EE02F00650D926DC
:101730000750DA22DE2A000EDD221200F28EF28C31
:10174000000E956E929489849388939A939C939EAD
:10175000F2861FEC0CF0010EC9EC0CF00D0E636E5E
:10176000FC0EE82EFED7632EFCD7010E5B6E100E2A
:101770005C6E71C05DF072C05EF0A1EC0CF00B0EFF
:10178000646E260E636E5E0EE82EFED7632EFCD7C7
:10179000642EFAD7E0D7026E0250F00B016E8C5027
:1017A0000F0B8C6E01508C108C6E8C96100EE82EE8
:1017B000FED700D08C86420EE82EFED700D002382D
:1017C000F00B026E0250F00B016E8C500F0B8C6E02
:1017D00001508C108C6E8C96100EE82EFED700D027
:1017E0008C86420EE82EFED700D0120055C059F06C
:1017F00056C05AF0000E6A6E000E696E12D053C0C9
:1018000043F054C044F0590E456E000E466E57C06A
:1018100047F058C048F027EC09F04350692644507F
:101820006A2259C0F6FF5AC0F7FF0800F5500009B8
:10183000D8A4E5D769C053F06AC054F01200270E4F
:10184000046EF50EE82EFED7042EFCD700F0330E02
:10185000C9EC0CF0320EC9EC0CF0280EC9EC0CF0FF
:101860000F0EC9EC0CF0060EC9EC0CF0010EC9EC21
:101870000CF0270E046EF50EE82EFED7042EFCD7D2
:1018800000F01200000E136E000E126E0BD011C08D
:1018900004F0056A0FC006F010C007F068EC0BF00A
:1018A000124A132A12500D24D96E13500E20DA6EEC
:1018B000DF50116E1150D8B41200E9D714BE05D014
:1018C000145010E11304D8B00DD013C015F014C09B
:1018D00016F0151E161E154A162A15C013F016C04E
:1018E00014F0120013C013F014C014F0120000EE34
:1018F00080F0200EEE6AE806FDE100EE65F00F0EC6
:10190000EE6AE806FDE174907492000EF86E100E17
:10191000F76E00019EEF0BF001C003F002C004F06F
:1019200002D0014A022A01C0D9FF02C0DAFFDF500B
:10193000D8A4F7D70350015C016E04500258026E20
:1019400012005D0E616E000E626E000E536E000E90
:10195000546E5BC055F05CC056F0610E576E000EC1
:10196000586EF6EC0BF012000600F2B6F2A005D0AD
:1019700081CF73F0714A722AF29074921100036E53
:101980008C840350CBEC0BF0420EE82EFED700D037
:0E1990001200036E8C940350CBEC0BF012008F
:020000040020DA
:08000000FFFFFFFFFFFFFFFF00
:020000040030CA
:0E000000FF481F1EFF8381FF0FC00FE00F405F
:00000001FF
