:020000040000FA
:0400000007EF00F016
:0A0008006C8202ED20F081EF21F080
:10100000003132334134353642373839432A3023C0
:1010100044000046110125021954696D653A2025E6
:101020003032643A2530326400437261636B2025AC
:10103000643A202566636D00253032782F253032E2
:10104000782F2530327800253032783A25303278C2
:101050003A2530327800486F6C652025643A2025A7
:1010600066636D00437261636B733A2025640048C8
:101070006F6C65733A20256400436F6E65733A2088
:101080002564004F7065726174696F6E00436F6D07
:10109000706C65746500494E46004E414E00696EA5
:0D10A00066006E616E006C66002578000031
:1010AE00000E00019B6F000E9A6F40C0ACF041C065
:1010BE00ADF042C0AEF043C0AFF0AFAF16D0000EF1
:1010CE009B6F010E9A6FACC011F0ADC012F0AEC0A6
:1010DE0013F0AFC014F091EC23F011C0ACF012C0BD
:1010EE00ADF013C0AEF014C0AFF0000E0001B36F40
:1010FE00000EB26F64C09FF065C0A0F09A519B11B4
:10110E00D8A402D068A413D09A519B11D8A404D0AD
:10111E00000E856F2B0E03D0000E856F2D0E846F83
:10112E0084C00CF1B24BB32B9F07D8A0A007ACC064
:10113E0011F0ADC012F0AEC013F0AFC014F0EBEC76
:10114E001DF011041210D8A44CD0BF0E456EFF0E28
:10115E00466E4450476E486A4550472646504822D0
:10116E00485006E11A0E475CD8B002D0010E01D0ED
:10117E00000E0001866F876B86518711D8B40DD093
:10118E000C0EB225116E010EB321126E960E136E59
:10119E00100E146E08EC22F00CD00C0EB225116E4F
:1011AE00010EB321126E9E0E136E100E146E08EC0D
:1011BE0022F00001FD0E9F27FF0EA0233EC024F05B
:1011CE003FC025F00C0E266E010E276E9FC028F034
:1011DE00A0C029F0B7EC1FF024C03EF025C03FF0B0
:1011EE001200ACC011F0ADC012F0AEC013F0AFC023
:1011FE0014F0EBEC1DF011501210D8A44CD0BF0E11
:10120E00456EFF0E466E4450476E486A455047265F
:10121E0046504822485006E11A0E475CD8B002D01C
:10122E00010E01D0000E0001886F896B8851891163
:10123E00D8B40DD00C0EB225116E010EB321126E64
:10124E009A0E136E100E146E08EC22F00CD00C0ECB
:10125E00B225116E010EB321126EA20E136E100E78
:10126E00146E08EC22F00001FD0E9F27FF0EA02346
:10127E003EC024F03FC025F00C0E266E010E276EE8
:10128E009FC028F0A0C029F0B7EC1FF024C03EF09C
:10129E0025C03FF01200000E0001B46F000EB56FB6
:1012AE00800EB66F3F0EB76F000EB16F000EB06FAF
:1012BE00ACC011F0ADC012F0AEC013F0AFC014F060
:1012CE00000E156E000E166E000E176E000E186EC6
:1012DE004BEC20F0D8A01ED076D0B4C011F0B5C023
:1012EE0012F0B6C013F0B7C014F0000E156E000E5B
:1012FE00166E200E176E410E186E1CEC10F011C0FB
:10130E00B4F012C0B5F013C0B6F014C0B7F00001BF
:10131E00B04BB12BACC02AF0ADC02BF0AEC02CF050
:10132E00AFC02DF0000E156E000E166E200E176E4D
:10133E00410E186EB4C011F0B5C012F0B6C013F065
:10134E00B7C014F01CEC10F011C02EF012C02FF02C
:10135E0013C030F014C031F083EC1DF0D8A01FD0B4
:10136E00BCD7B4C011F0B5C012F0B6C013F0B7C000
:10137E0014F0000E156E000E166E200E176E410E36
:10138E00186E57EC16F011C0B4F012C0B5F013C0C1
:10139E00B6F014C0B7F00001B007D8A0B107ACC0CA
:1013AE002AF0ADC02BF0AEC02CF0AFC02DF0B4C003
:1013BE002EF0B5C02FF0B6C030F0B7C031F083ECD0
:1013CE001DF0D8A0CED744C017F0186A32EC22F028
:1013DE0017500001A16FA1C09EF0670EA119D8A4ED
:1013EE0019D066506710D8A404D0000E676E010E97
:1013FE00666E67BE05D0675008E16604D8B005D0AA
:10140E00000E9D6F060E9C6F08D066C09CF067C0E4
:10141E009DF003D067AEF9D7F3D7670EA119D8A404
:10142E0022D0B1AF06D0FC0EB05DFF0EB159D8A0E0
:10143E0018D0FF0E456EFF0E466E9CC047F09DC045
:10144E0048F04550472646504822B051475C485018
:10145E00800A496EB151800A4958D8A002D0660E52
:10146E0001D0650E9E6F9CC094F09DC095F0670EE6
:10147E00A119D8A405D0660E9E19D8B4B1AF02D06A
:10148E00944B952B660E9E19D8A416D0B1AF0CD0E6
:10149E00000EB46F000EB56F800EB66F3F0EB76FB5
:1014AE00000EB16F000EB06F670EA119D8B404D044
:1014BE00B0519427B1519523000EAB6F000EAA6F59
:1014CE00ACC0A2F0ADC0A3F0AEC0A4F0AFC0A5F00A
:1014DE00B4C080F0B5C081F0B6C082F0B7C083F062
:1014EE007BD0A2C011F0A3C012F0A4C013F0A5C00F
:1014FE0014F0B4C015F0B5C016F0B6C017F0B7C0F2
:10150E0018F057EC16F011C02AF012C02BF013C0D1
:10151E002CF014C02DF0D2EC19F02AC0A6F02BC07E
:10152E00A7F02CC0A8F02DC0A9F0A6C011F0A7C03E
:10153E0012F0A8C013F0A9C014F0B7EC1EF011C041
:10154E0098F012C099F0A2C02AF0A3C02BF0A4C04C
:10155E002CF0A5C02DF0B4C015F0B5C016F0B6C075
:10156E0017F0B7C018F0A6C011F0A7C012F0A8C0AF
:10157E0013F0A9C014F01CEC10F011C02EF012C024
:10158E002FF013C030F014C031F07DEC22F02AC0E1
:10159E00A2F02BC0A3F02CC0A4F02DC0A5F0B4C0B7
:1015AE0011F0B5C012F0B6C013F0B7C014F0000EB3
:1015BE00156E000E166E200E176E410E186E57EC3D
:1015CE0016F011C0B4F012C0B5F013C0B6F014C0CE
:1015DE00B7F00001AA4BAB2B9451AA5DAB51800A18
:1015EE00456E9551800A4558D8A07BD7B4C011F0EE
:1015FE00B5C012F0B6C013F0B7C014F0000E156EE1
:10160E00000E166EA00E176E400E186E1CEC10F02B
:10161E0011C0A6F012C0A7F013C0A8F014C0A9F014
:10162E00A2C02AF0A3C02BF0A4C02CF0A5C02DF0B0
:10163E00A6C02EF0A7C02FF0A8C030F0A9C031F080
:10164E0083EC1DF0D8B003D0000E000118D0A2C05C
:10165E0011F0A3C012F0A4C013F0A5C014F0A6C0E0
:10166E0015F0A7C016F0A8C017F0A9C018F04BECE3
:10167E0020F0D8A00BD0000198B108D0000EA66FB4
:10168E00000EA76F000EA86F000EA96FACC011F070
:10169E00ADC012F0AEC013F0AFC014F0A6C015F07E
:1016AE00A7C016F0A8C017F0A9C018F04BEC13F0A5
:1016BE0011C0A2F012C0A3F013C0A4F014C0A5F084
:1016CE0080C0B4F081C0B5F082C0B6F083C0B7F070
:1016DE00650E00019E19D8B405D0B0C096F0B1C009
:1016EE0097F004D0000E976F000E966F000E936F5A
:1016FE00000E926F000E916F000E906F000EAB6F8A
:10170E00000EAA6FC7D0A2C011F0A3C012F0A4C0E1
:10171E0013F0A5C014F0B4C015F0B5C016F0B6C0E5
:10172E0017F0B7C018F057EC16F011C02AF012C01F
:10173E002BF013C02CF014C02DF0D2EC19F02AC0EF
:10174E00A6F02BC0A7F02CC0A8F02DC0A9F0A6C003
:10175E0011F0A7C012F0A8C013F0A9C014F0B7EC96
:10176E001EF011C098F012C099F068B80DD00001AB
:10177E0098519911D8A408D0670EA119D8B497AF73
:10178E0003D0904B912B3AD0000192519311D8B4C3
:10179E0097AF22D00C0EB225D96E010EB321DA6EA0
:1017AE002E0EDF6EB24BB32B9F07D8A0A007000EF4
:1017BE00936F010E926F10D00C0EB225D96E010EE2
:1017CE00B321DA6E300EDF6EB24BB32B9F07D8A06B
:1017DE00A0079007D8A0910790519111D8A4ECD7EB
:1017EE000C0EB225D96E010EB321DA6E9851300F60
:1017FE00DF6EB24BB32B9F07D8A0A007A2C02AF072
:10180E00A3C02BF0A4C02CF0A5C02DF0B4C015F0D1
:10181E00B5C016F0B6C017F0B7C018F0A6C011F0DC
:10182E00A7C012F0A8C013F0A9C014F01CEC10F061
:10183E0011C02EF012C02FF013C030F014C031F0D2
:10184E007DEC22F02AC0A2F02BC0A3F02CC0A4F095
:10185E002DC0A5F0B4C011F0B5C012F0B6C013F093
:10186E00B7C014F0000E156E000E166E200E176E19
:10187E00410E186E57EC16F011C0B4F012C0B5F050
:10188E0013C0B6F014C0B7F000019607D8A09707A2
:10189E00AA4BAB2B9451AA5DAB51800A456E955164
:1018AE00800A4558D8B008D0B3BF2DD7B35104E144
:1018BE004B0EB25DD8A027D792519311D8B468A819
:1018CE000AD00C0EB225D96E010EB321DA6E2E0E91
:1018DE00DF6EB24BB32B0C0EB225D96E010EB321B7
:1018EE00DA6E000EDF6E650E9E19D8A4ADD0000E16
:1018FE00AB6F4F0EAA6F0C0EAA25D96E010EAB213F
:10190E00DA6E000EDF6E000E9B6F000E9A6FB1AF97
:10191E0008D0000E9B6F010E9A6FB06DB11FD8B03C
:10192E00B12B000E9D6F020E9C6F2BD0AA07D8A074
:10193E00AB070C0EAA25D96E010EAB21DA6EB0C024
:10194E0011F0B1C012F0000E146E0A0E136E13ECED
:10195E0021F01150300FDF6EB0C011F0B1C012F097
:10196E00000E146E0A0E136E90EC20F011C0B0F043
:10197E0012C0B1F000019C07D8A09D079F07D8A008
:10198E00A007B051B111D8A4D1D79DBF05D09D519C
:10199E00CDE19C05D8B0CAD7AA07D8A0AB079A51FB
:1019AE009B11D8A404D0000E8B6F2B0E03D0000E0B
:1019BE008B6F2D0E8A6F0C0EAA25D96E010EAB21E0
:1019CE00DA6E8AC0DFFF9F07D8A0A007AA07D8A0AB
:1019DE00AB07BF0E456EFF0E466E4450476E486A0B
:1019EE004550472646504822485006E11A0E475C9D
:1019FE00D8B002D0010E01D0000E8E6F8F6B8E51BB
:101A0E008F11D8A404D0000E8D6F650E03D0000E7A
:101A1E008D6F450E8C6F0C0EAA25D96E010EAB2163
:101A2E00DA6E8CC0DFFF9F07D8A0A0070C0EB22580
:101A3E00116E010EB321126E0C0EAA25136E010E3D
:101A4E00AB21146E08EC22F03EC024F03FC025F00E
:101A5E000C0E266E010E276E9FC028F0A0C029F036
:101A6E00B7EC1FF024C03EF025C03FF01200BAC004
:101A7E00D9FFBBC0DAFFDECFF6FFDDCFF7FF0800E0
:101A8E00F550250AD8A4B7D2BAC0D9FFBBC0DAFF29
:101A9E00DE2A000EDD22000E656E000E646E64C03E
:101AAE0068F065C069F066686768000E0001CF6F68
:101ABE00000E14D06880BAC0D9FFBBC0DAFFDE2A90
:101ACE00000EDD222ED06882F6D76884F4D76886A1
:101ADE00F2D76888F0D7000ECF6F010ECE6F21D0EF
:101AEE00BAC0D9FFBBC0DAFFDECFF6FFDDCFF7FFFE
:101AFE000800F550566E576A5750000AD8A4EBD717
:101B0E005650200AD8B4E3D7030AD8B4E2D7080A4D
:101B1E00D8B4DBD7060AD8B4CDD71D0AD8B4D3D7DC
:101B2E00DAD7CE51CF11D8B4DBD768B06892BAC02D
:101B3E00D9FFBBC0DAFFDECFF6FFDDCFF7FF08001F
:101B4E00F5502A0AD8A423D0BAC0D9FFBBC0DAFFF9
:101B5E00DE2A000EDD22BCC0D9FFBDC0DAFFDFCF0A
:101B6E0056F0020EDE26DFCF57F0000EDD2256C0F5
:101B7E00D9FF57C0DAFFDECF64F0DDCF65F065AE7A
:101B8E0040D06880646C651ED8B0652A3AD0BAC061
:101B9E00D9FFBBC0DAFFDECF18F0DDCF19F051EC64
:101BAE001BF018C064F019C065F007D0BAC0D9FF99
:101BBE00BBC0DAFFDE2A000EDD22D00E566EFF0EFF
:101BCE00576EBAC0D9FFBBC0DAFFDECFF6FFDDCF4E
:101BDE00F7FF0800F550586E596A56505826575060
:101BEE005922595006E10A0E585CD8B002D0010EA7
:101BFE0001D0000E0001D06FD16BD051D111D8A4FD
:101C0E00D5D7BAC0D9FFBBC0DAFFDECFF6FFDDCF26
:101C1E00F7FF0800F550176E186A32EC22F01750D5
:101C2E000001D86FD851D8B435D0BAC0D9FFBBC0D7
:101C3E00DAFFDECF56F0DDCF57F0010E5626000E3E
:101C4E00572256C0F6FF57C0F7FF0800F550176E23
:101C5E00186A32EC22F017500001D96FD951D8B45E
:101C6E0019D0BAC0D9FFBBC0DAFFDECF56F0DDCF38
:101C7E0057F0020E5626000E572256C0F6FF57C0DA
:101C8E00F7FF0800F550176E186A32EC22F0175065
:101C9E000001DA6FBAC0D9FFBBC0DAFFDECFF6FFA4
:101CAE00DDCFF7FF0800F550640AD8B40DD0BAC0E6
:101CBE00D9FFBBC0DAFFDECFF6FFDDCFF7FF08009E
:101CCE00F550690AD8A43FD0BAC0D9FFBBC0DAFF1D
:101CDE00DE2A000EDD22BCC0D9FFBDC0DAFFDFCF89
:101CEE0056F0020EDE26DFCF57F0000EDD2256C074
:101CFE00D9FF57C0DAFFDECFBEF0DDCFBFF0000E4A
:101D0E00BFBFFF0EC06FC16FC26FC36FC46FC56F11
:101D1E00B8C02FF0B9C030F0BEC031F0BFC032F045
:101D2E00C0C033F0C1C034F0C2C035F0C3C036F00D
:101D3E00C4C037F0C5C038F09BEC17F02FC0B8F018
:101D4E0030C0B9F01200660ED819D8A43FD0BAC070
:101D5E00D9FFBBC0DAFFDECFF6FFDDCFF7FF0800FD
:101D6E00F5CFDBF0BAC0D9FFBBC0DAFFDE2A000E1A
:101D7E00DD22BCC0D9FFBDC0DAFFDFCF56F0040EA6
:101D8E00DE26DFCF57F0000EDD2256C0D9FF57C03A
:101D9E00DAFFDECFD4F0DECFD5F0DECFD6F0DECF59
:101DAE00D7F0B8C03EF0B9C03FF0D4C040F0D5C0B7
:101DBE0041F0D6C042F0D7C043F0DBC044F057EC40
:101DCE0008F03EC0B8F03FC0B9F01200D80E116E48
:101DDE00000E126EA60E136E100E146E000E166E00
:101DEE00020E156E66EC1FF011501210D8A46AD0B8
:101DFE00BAC0D9FFBBC0DAFFDECF56F0DDCF57F049
:101E0E00010E5626000E572256C0F6FF57C0F7FF9A
:101E1E000800F5CFDBF0BF0E566EFF0E576EBAC040
:101E2E00D9FFBBC0DAFFDECFF6FFDDCFF7FF08002C
:101E3E00F550586E596A56505826575059225950D7
:101E4E0006E11A0E585CD8B002D0010E01D0000E79
:101E5E000001D26FD36BD251D311BCC0D9FFBDC01C
:101E6E00DAFFDFCF56F0040EDE26DFCF57F0000E7E
:101E7E00DD2256C0D9FF57C0DAFFDECFD4F0DECF59
:101E8E00D5F0DECFD6F0DECFD7F0020EBAC0D9FF36
:101E9E00BBC0DAFFDE26000EDD22B8C03EF0B9C0B0
:101EAE003FF0D4C040F0D5C041F0D6C042F0D7C00C
:101EBE0043F0DBC044F057EC08F03EC0B8F03FC032
:101ECE00B9F01200BAC0D9FFBBC0DAFFDECFF6FF01
:101EDE00DDCFF7FF0800F550780AD8B40DD0BAC0A0
:101EEE00D9FFBBC0DAFFDECFF6FFDDCFF7FF08006C
:101EFE00F550580AD8A44ED0BAC0D9FFBBC0DAFFED
:101F0E00DECFF6FFDDCFF7FF0800F5CFDBF0BAC06E
:101F1E00D9FFBBC0DAFFDE2A000EDD22BCC0D9FF1E
:101F2E00BDC0DAFFDFCF56F0020EDE26DFCF57F050
:101F3E00000EDD2256C0D9FF57C0DAFFDECF58F0B3
:101F4E00DDCF59F058C0C6F059C0C7F00001C86BBC
:101F5E00C96BCA6BCB6BCC6BCD6BB8C02FF0B9C055
:101F6E0030F0C6C031F0C7C032F0C8C033F0C9C0BF
:101F7E0034F0CAC035F0CBC036F0CCC037F0CDC08F
:101F8E0038F0DBC039F0BCEC18F02FC0B8F030C020
:101F9E00B9F01200BAC0D9FFBBC0DAFFDECFF6FF30
:101FAE00DDCFF7FF0800F550250AD8A417D0BAC028
:101FBE00D9FFBBC0DAFFDE2A000EDD22000E156E41
:101FCE00250E146EB8C016F0B9C017F04BEC21F008
:101FDE00000E0001B96F010EB86F1200BAC0D9FF22
:101FEE00BBC0DAFFDE2A000EDD22000E0001B96F43
:101FFE00000EB86F1200BAC0D9FFBBC0DAFFDECF39
:10200E00F6FFDDCFF7FF0800F550146E156AB8C065
:10201E0016F0B9C017F04BEC21F0BAC0D9FFBBC017
:10202E00DAFFDE2A000EDD22D3D71450800B1D6E90
:10203E0014501424236E13BE23802350D8B40DD015
:10204E002328D8A408D0000E116E000E126E000EBA
:10205E00136E000E146E138E08D0000E116E000E4D
:10206E00126E000E136E000E146E1850800B1D1A99
:10207E00185018241E6E17BE1E801E50D8B40DD0D8
:10208E001E28D8A408D0000E156E000E166E000E77
:10209E00176E000E186E178E08D0000E156E000EFD
:1020AE00166E000E176E000E186E1E50D8B403D0AA
:1020BE002350D8A409D0000E116E000E126E000E21
:1020CE00136E000E146E120017501102F3CF28F08B
:1020DE00F4CF29F028501F6E206A216A226A2950F7
:1020EE00246E256A266A276A16501202F3CF28F04C
:1020FE00F4CF29F028501F26000E20222122222262
:10210E0029502426000E252226222722155013029E
:10211E00F3CF28F0F4CF29F028501F26000E2022EE
:10212E002122222229502426000E25222622272271
:10213E0021C022F020C021F01FC020F01F6A1550D0
:10214E001202F3CF28F0F4CF29F028501F26295081
:10215E002022000E2122000E222216501102F3CF51
:10216E0028F0F4CF29F028501F2629502022000EE7
:10217E002122000E222221C022F020C021F01FC0F9
:10218E0020F01F6A15501102F3CF28F0F4CF29F07A
:10219E0028501F2629502022000E2122000E222216
:1021AE0017501202F3CF28F0F4CF29F0285024262E
:1021BE0029502522000E2622000E27221650130229
:1021CE00F3CF28F0F4CF29F02850242629502522C9
:1021DE00000E2622000E272217501302F3CF28F0EE
:1021EE00F4CF29F02850196E29501A6E1B6A1C6AFA
:1021FE001BC01CF01AC01BF019C01AF0196A195036
:10220E0024261A5025221B5026221C5027221FC07E
:10221E0019F020C01AF021C01BF022C01CF0190EBC
:10222E0005D0D8901C321B321A321932E82EF9D74B
:10223E00195024261A5025221B5026221C502722C4
:10224E0021C022F020C021F01FC020F01F6A1E50B6
:10225E0023C019F01A6A1926000E1A22820E1924AA
:10226E00286EFF0E1A20296E0FD0D89024362536F0
:10227E002636273622BE2480D8901F3620362136A9
:10228E0022362806D8A0290626AEEFD7000E1E6EDF
:10229E0022AE17D0FF0E1F14196EFF0E20141A6EE9
:1022AE00FF0E21141B6E7F0E22141C6E19501A1075
:1022BE001B101C10D8B403D0010E1E6E02D024B019
:1022CE00FBD71E50D8B41FD0010E2426000E252297
:1022DE002622272227A017D024C019F025C01AF0D5
:1022EE0026C01BF027C01CF01C341C321B321A32C5
:1022FE00193219C024F01AC025F01BC026F01CC0DC
:10230E0027F0284A292A29BE0DD0295003E1282872
:10231E00D8A008D0000E246E000E256E800E266EFC
:10232E007F0E20D029BE05D029500EE12804D8B04A
:10233E000BD0000E246E000E256E000E266E000EC3
:10234E00276E000E1D6E0FD028C023F0FF0E241630
:10235E00FF0E25167F0E2616000E271623B0268E8C
:10236E00D8902330276E1D50271224C011F025C09F
:10237E0012F026C013F027C014F01200000E8C6E5F
:10238E00000E956EA0EC22F0A00E1E6E860E1F6E35
:10239E00010E206E000E216E14EC1FF024EC24F0C2
:1023AE00800E01015E6F250E5F6F000E606F000ED6
:1023BE00616F000E116E5A0E126E620E136E020EC9
:1023CE00146E5EC1EEF05FC1EFF060C1F0F061C15E
:1023DE00F1F0060ED8900001EE37EF37F037F137F7
:1023EE00E82EF8D7EEC015F0EFC016F0F0C017F0DB
:1023FE00F1C018F051EC1EF01104AF6EAC9CAC980D
:10240E00AC8A410E0001EE6FEE0EE82EFED7EE2FD7
:10241E00FCD700F0AB9CAB88949C948EAB8E9D8ABF
:10242E009290929289908992F28EF28CF08692948A
:10243E002CEC24F0000E136ED00E126E1BEC24F05A
:10244E00000E136E000E126E1BEC24F028EC24F01E
:10245E002CEC24F0000E136ED10E126E1BEC24F039
:10246E00000E0101736F620E7325D96EDA6A010ECA
:10247E00DA22000EE4EC23F0DF6E0101732B050E61
:10248E007365F1D7010EE4EC23F00101686F28ECBF
:10249E0024F0F6EC23F0380E0001E26F100EE36F1D
:1024AE0066C1E4F0E56B67C1E6F0E76B68C1E8F082
:1024BE00E96BBDEC23F020EC24F0470E0001E26F37
:1024CE00100EE36F64C1E4F0E56B63C1E6F0E76BF9
:1024DE0062C1E8F0E96BBDEC23F0330E0001EF6F43
:1024EE00BB0EEE6FDF0EE82EFED7EE2FFCD7EF2FD2
:1024FE00FAD700D0010104510511D8B499D7000EB6
:10250E00056F000E046FF6EC23F001010451051166
:10251E00D8B4FBD7000E056F000E046F81380F0B79
:10252E000F0B746F010E7425F66EF76A100EF722FC
:10253E000800F550410AD8B445D0140E7719D8B416
:10254E0074C177F1140E7719D8A474C176F1A90E5F
:10255E000001E26F100EE36F010E01017425F66E9D
:10256E00F76A100EF7220800F5500001E46FE56BD4
:10257E00BDEC23F076C117F00101775179EC23F011
:10258E0017C00AF118C00BF1ACB202D0010E01D087
:10259E00000E0001EE6F9EB802D0010E01D0000EAB
:1025AE00EE11F2E10AC1ADFF330E0001EF6FBB0E6B
:1025BE00EE6FDF0EE82EFED7EE2FFCD7EF2FFAD7F9
:1025CE0000D0A3D72CEC24F0000E136ED00E126E9A
:1025DE001BEC24F0000E136E000E126E1BEC24F09A
:1025EE0028EC24F02CEC24F0000E136ED10E126E9B
:1025FE001BEC24F0000EE4EC23F00101706F010ED1
:10260E00E4EC23F00101696F700E5C6F010E5D6FDB
:10261E0028EC24F0ACB202D0010E01D0000E000165
:10262E00EE6F9EB802D0010E01D0000EEE11F2E157
:10263E00410EAD6E330E0001EF6FBB0EEE6FDF0E6F
:10264E00E82EFED7EE2FFCD7EF2FFAD700D08984D5
:10265E00F286ACB202D0010E01D0000E0001EE6F78
:10266E009EB802D0010E01D0000EEE11F2E100C1B3
:10267E0011F001C112F002C113F003C114F0B7EC56
:10268E001EF01150AD6EE5D71450800B1D6E145018
:10269E0014241F6E13BE1F801F50D8B40DD01F28D8
:1026AE00D8A408D0000E116E000E126E000E136E1E
:1026BE00000E146E138E06D0000E116E000E126EEA
:1026CE00000E136E000E146E1850800B1E6E1D50F1
:1026DE001E18D8A41D8C185018241E6E17BE1E80EE
:1026EE001E50D8B40DD01E28D8A408D0000E156EDA
:1026FE00000E166E000E176E000E186E178E06D098
:10270E00000E156E000E166E000E176E000E186E71
:10271E001F501E5CD8B022D01DAC02D0800E1D1AE8
:10272E001FC020F01EC01FF020C01EF011C020F0F0
:10273E0015C011F020C015F012C020F016C012F016
:10274E0020C016F013C020F017C013F020C017F0F1
:10275E0014C020F018C014F020C018F0000E206E27
:10276E001F501EC019F01A6A195E000E1A5A1ABEB0
:10277E002CD01A5004E11A0E195CD8A026D0115094
:10278E00121013101410D8B402D0010E01D0000E86
:10279E00206E000E116E000E126E000E136E000EE5
:1027AE00146E1EC01FF015D020A005D0D89020307A
:1027BE000109206E02D0D890203211B0208E143430
:1027CE0014321332123211321F2A1E501F5CD8A03F
:1027DE00EBD71DBC28D01F50D8A409D0000E116E07
:1027EE00000E126E000E136E000E146E12001550B7
:1027FE00112616501222175013221850142214A00C
:10280E0071D020A005D0D89020300109206E02D0C2
:10281E00D890203211B0208E14341432133212326A
:10282E0011321F2A5FD01550115C165012581750D6
:10283E0013581450800A196E1850800A1958D8B0BF
:10284E0025D01150155C196E125016581A6E135071
:10285E0017581B6E145018581C6EFF0E1924116E4B
:10286E00FF0E1A20126EFF0E1B20136EFF0E1C2081
:10287E00146E800E1D1A206C2050D8A40FD0010E9D
:10288E001126000E12221322142208D01550115EAA
:10289E001650125A1750135A1850145A115012102B
:1028AE0013101410D8A41CD02050D8A419D0000E88
:1028BE00116E000E126E000E136E000E146E1200CC
:1028CE00D890113612361336143620BE118020A041
:1028DE0002D0D88001D0D89020361F50D8A41F0621
:1028EE0013AEEED7000E1E6E20AE0BD020C019F028
:1028FE007F0E1916D8B403D0010E1E6E02D011B081
:10290E00FBD71E50D8B420D0010E1126000E122275
:10291E001322142214A018D011C019F012C01AF0EC
:10292E0013C01BF014C01CF01C341C321B321A32A4
:10293E00193219C011F01AC012F01BC013F01CC0CE
:10294E0014F01F28D8A41F2A1F28D8B403D01F5054
:10295E00D8A40DD0000E116E000E126E000E136E66
:10296E00000E146E1F50D8A402D0000E1D6E1FA0B4
:10297E0002D0138E01D0139ED8901F30146E1DBE40
:10298E00148E11C011F012C012F013C013F014C047
:10299E0014F012000450800B0D6E045004240F6EC0
:1029AE0003BE0F800F50D8B40DD00F28D8A408D076
:1029BE00000E016E000E026E000E036E000E046E0F
:1029CE00038E06D0000E016E000E026E000E036E18
:1029DE00000E046E0850800B0E6E0D500E18D8A40B
:1029EE000D8C085008240E6E07BE0E800E50D8B403
:1029FE000DD00E28D8A408D0000E056E000E066E5F
:102A0E00000E076E000E086E078E06D0000E056EC5
:102A1E00000E066E000E076E000E086E0F500E5C56
:102A2E00D8B022D00DAC02D0800E0D1A0FC010F00F
:102A3E000EC00FF010C00EF001C010F005C001F076
:102A4E0010C005F002C010F006C002F010C006F073
:102A5E0003C010F007C003F010C007F004C010F060
:102A6E0008C004F010C008F0000E106E0F500EC01B
:102A7E0009F00A6A095E000E0A5A0ABE2CD00A50E4
:102A8E0004E11A0E095CD8A026D0015002100310E2
:102A9E000410D8B402D0010E01D0000E106E000E3C
:102AAE00016E000E026E000E036E000E046E0EC05E
:102ABE000FF015D010A005D0D89010300109106E6F
:102ACE0002D0D890103201B0108E0434043203328A
:102ADE00023201320F2A0E500F5CD8A0EBD70DBC7C
:102AEE0028D00F50D8A409D0000E016E000E026E31
:102AFE00000E036E000E046E1200055001260650E5
:102B0E000222075003220850042204A071D010A004
:102B1E0005D0D89010300109106E02D0D890103226
:102B2E0001B0108E043404320332023201320F2A05
:102B3E005FD00550015C06500258075003580450F0
:102B4E00800A096E0850800A0958D8B025D0015065
:102B5E00055C096E025006580A6E035007580B6E3C
:102B6E00045008580C6EFF0E0924016EFF0E0A2049
:102B7E00026EFF0E0B20036EFF0E0C20046E800EF5
:102B8E000D1A106C1050D8A40FD0010E0126000E95
:102B9E0002220322042208D00550015E0650025A7A
:102BAE000750035A0850045A015002100310041023
:102BBE00D8A41CD01050D8A419D0000E016E000E4F
:102BCE00026E000E036E000E046E1200D8900136D7
:102BDE0002360336043610BE018010A002D0D88013
:102BEE0001D0D89010360F50D8A40F0603AEEED7F2
:102BFE00000E0E6E10AE0BD010C009F07F0E09162F
:102C0E00D8B403D0010E0E6E02D001B0FBD70E5019
:102C1E00D8B420D0010E0126000E02220322042277
:102C2E0004A018D001C009F002C00AF003C00BF0D6
:102C3E0004C00CF00C340C320B320A32093209C0CB
:102C4E0001F00AC002F00BC003F00CC004F00F2814
:102C5E00D8A40F2A0F28D8B403D00F50D8A40DD063
:102C6E00000E016E000E026E000E036E000E046E5C
:102C7E000F50D8A402D0000E0D6E0FA002D0038EFE
:102C8E0001D0039ED8900F30046E0DBE048E01C08D
:102C9E0001F002C002F003C003F004C004F0120001
:102CAE001450800B216E14501424286E13BE2880ED
:102CBE002850D8B40DD02828D8A408D0000E116EF4
:102CCE00000E126E000E136E000E146E138E06D0D2
:102CDE00000E116E000E126E000E136E000E146EAC
:102CEE001850800B211A18501824296E17BE2980EF
:102CFE002950D8B40DD02928D8A408D0000E156EAE
:102D0E00000E166E000E176E000E186E178E06D081
:102D1E00000E156E000E166E000E176E000E186E5B
:102D2E001550161017101810D8A417D0000E116ECB
:102D3E00000E126E000E136E000E146E800E131225
:102D4E007F0E14122150141211C011F012C012F085
:102D5E0013C013F014C014F012002850D8A409D0D8
:102D6E00000E116E000E126E000E136E000E146E1B
:102D7E001200295028C019F01A6A195E000E1A5A4C
:102D8E007F0E1924226E000E1A20236E11C01DF024
:102D9E0012C01EF013C01FF014C020F0000E116EF2
:102DAE00000E126E000E136E000E146E000E246EC8
:102DBE00000E256E000E266E000E276E000E296E7A
:102DCE0028D02950D8B411D0D8901D361E361F36B3
:102DDE002036D890113612361336143627BE11808F
:102DEE00D890243625362636273615501D5C1650BB
:102DFE001E5817501F5818502058D8A009D0278C8D
:102E0E0015501D5E16501E5A17501F5A1850205A34
:102E1E00292A190E2964D5D71D501E101F102010F7
:102E2E00D8B411D024800FD0D89011361236133664
:102E3E00143627BE1180D8902436253626362736EE
:102E4E002206D8A0230613AEEFD7000E296E27AEAA
:102E5E0017D0FF0E2414196EFF0E25141A6EFF0ED6
:102E6E0026141B6E7F0E27141C6E19501A101B1081
:102E7E001C10D8B403D0010E296E02D011B0FBD7AE
:102E8E002950D8B41FD0010E1126000E1222132283
:102E9E00142214A017D011C019F012C01AF013C0CA
:102EAE001BF014C01CF01C341C321B321A321932A7
:102EBE0019C011F01AC012F01BC013F01CC014F090
:102ECE00224A232A23BE10D0235003E12228D8A061
:102EDE000BD0000E236E2268000E116E000E126EC5
:102EEE00000E136E000E146E23BE05D0235011E19A
:102EFE002204D8B00ED0000E236E000E226E000EED
:102F0E00116E000E126E000E136E000E146E000E79
:102F1E00216E22C028F028A002D0138E01D0139E5D
:102F2E00D8902830146E0ED731C049F032C04AF016
:102F3E0033C04BF034C04CF035C04DF036C04EF0BF
:102F4E0037C04FF038C050F050AE02D0010E01D055
:102F5E00000E476E486A47504810D8B410D0501E25
:102F6E004F1E4E1E4D1E4C1E4B1E4A1E496C000E11
:102F7E004A224B224C224D224E224F22502267AE25
:102F8E00689267BE05D0675008E16604D8B005D0D8
:102F9E00000E446E010E436E04D066C043F067C04F
:102FAE0044F064C045F065C046F047504810D8A4C0
:102FBE0002D068A403D04506D8A04606000E526E75
:102FCE004F0E516E000E01015B6F7CD05106D8A0E2
:102FDE0052060C0E5124D96E010E5220DA6E49C0E3
:102FEE0011F04AC012F04BC013F04CC014F04DC09B
:102FFE0015F04EC016F04FC017F050C018F00A0E64
:10300E00196E000E1A6E000E1B6E000E1C6E000E58
:10301E001D6E000E1E6E000E1F6E000E206EF1EC69
:10302E001BF011C039F012C03AF013C03BF014C0BF
:10303E003CF015C03DF016C03EF017C03FF018C072
:10304E0040F039C023F03BC024F018EC23F023509D
:10305E00300FDF6E4306D8A044064506D8A04606BC
:10306E0049C011F04AC012F04BC013F04CC014F01E
:10307E004DC015F04EC016F04FC017F050C018F0EE
:10308E000A0E196E000E1A6E000E1B6E000E1C6ECE
:10309E00000E1D6E000E1E6E000E1F6E000E206EB8
:1030AE00ADEC1AF011C049F012C04AF013C04BF04B
:1030BE0014C04CF015C04DF016C04EF017C04FF0B6
:1030CE0018C050F052BE1FD0525003E15104D8A088
:1030DE001AD049504A104B104C104D104E104F1034
:1030EE005010D8A473D744BE05D0445002E1430417
:1030FE00D8B06CD746BE07D0465003E14504D8A0E1
:10310E0002D068B263D747504810D8A402D068A442
:10311E0017D05106D8A0520647504810D8A404D054
:10312E00000E426E2B0E03D0000E426E2D0E416E1F
:10313E000C0E5124D96E010E5220DA6E41C0DFFF03
:10314E002FC024F030C025F00C0E5124266E010E37
:10315E005220276E45C028F046C029F0B7EC1FF06C
:10316E0024C02FF025C030F0120067AE689267BE03
:10317E0005D0675008E16604D8B005D0000E476E42
:10318E00010E466E04D066C046F067C047F064C0BC
:10319E0048F065C049F068A804D0FE0E4826FF0E20
:1031AE00492231C04AF032C04BF033C04CF034C02B
:1031BE004DF035C04EF036C04FF037C050F038C02D
:1031CE0051F0000E536E4F0E526E000E01015B6FEA
:1031DE0093D05206D8A053060F0E4A14546E556A59
:1031EE0055BE08D0555004E10A0E545CD8A002D04A
:1031FE00570E01D0300E5424546E000E5520556ECD
:10320E00BF0E3A6EFF0E3B6E39503C6E3D6A3A5021
:10321E003C263B503D223D5006E11A0E3C5CD8B098
:10322E0002D0010E01D0000E426E436A425043108E
:10323E00D8B427D09F0E3A6EFF0E3B6E200E541060
:10324E003C6E000E55103D6E3A503C263B503D22D2
:10325E003D5006E11A0E3C5CD8B002D0010E01D0F2
:10326E00000E446E456A44504510D8B40AD054C07E
:10327E0017F055C018F058EC22F017C054F018C0D3
:10328E0055F00C0E5224D96E010E5320DA6E54C036
:10329E00DFFF4606D8A047064806D8A049064AC012
:1032AE003AF04BC03BF04CC03CF04DC03DF04EC030
:1032BE003EF04FC03FF050C040F051C041F0050EFF
:1032CE0009D0D890413240323F323E323D323C320C
:1032DE003B323A32E82EF5D73AC04AF03BC04BF0BB
:1032EE003CC04CF03DC04DF03EC04EF03FC04FF0E4
:1032FE0040C050F041C051F053BE20D0535004E1B5
:10330E00020E525CD8A01AD04A504B104C104D10E1
:10331E004E104F1050105110D8A45BD747BE05D099
:10332E00475002E14604D8B054D749BE07D04950A1
:10333E0003E14804D8A002D068B24BD768A816D0D3
:10334E005206D8A053060C0E5224D96E010E5320ED
:10335E00DA6E39C0DFFF5206D8A053060C0E522487
:10336E00D96E010E5320DA6E300EDF6E2FC024F0B0
:10337E0030C025F00C0E5224266E010E5320276EFF
:10338E0048C028F049C029F0B7EC1FF024C02FF038
:10339E0025C030F012005CC03AF05DC03BF05EC05C
:1033AE003CF05FC03DF02AC03AF02BC03BF02CC081
:1033BE003CF02DC03DF0810E2E6EFF0E2F6E3AC0EA
:1033CE0030F03BC031F03CC032F03DC033F0180E4F
:1033DE0005D0D8903332323231323032E82EF9D72E
:1033EE0030502E24386E000E2F20396E39BE0FD07D
:1033FE00395004E1170E385CD8A009D02AC02AF043
:10340E002BC02BF02CC02CF02DC02DF0120039BE8D
:10341E005ED038C02EF0FF0E2F6EFF0E306E7F0E78
:10342E00316E000E326E2E6601D007D0323432323B
:10343E00313230322F322E2EF6D72FC034F030C02C
:10344E0035F031C036F032C037F034503A142E6EAB
:10345E0035503B142F6E36503C14306E37503D14A1
:10346E00316E2E502F1030103110D8B4C7D73AC04D
:10347E002EF03BC02FF03CC030F03DC031F0200E9E
:10348E0005D0D890313230322F322E32E82EF9D785
:10349E002E502F1030103110D8B408D034503A2698
:1034AE0035503B2236503C2237503D22341C2E6E76
:1034BE00351C2F6E361C306E371C316E2E503A1660
:1034CE002F503B1630503C1631503D1636D03AC078
:1034DE002EF03BC02FF03CC030F03DC031F0200E3E
:1034EE0005D0D890313230322F322E32E82EF9D725
:1034FE002E502F1030103110D8A408D0000E3A6E76
:10350E00000E3B6E000E3C6E000E16D0D8903A3474
:10351E002E6E3B342F6E3C34306E3D34316E2E5059
:10352E002F1030103110D8B408D0000E3A6E000EA5
:10353E003B6E800E3C6EBF0E3D6E3AC02AF03BC015
:10354E002BF03CC02CF03DC02DF01200000E226E70
:10355E0020AE12D0201E1F1E1E1E1D1E1C1E1B1E48
:10356E001A1E196C000E1A221B221C221D221E224C
:10357E001F222022010E226E18AE12D0181E171E08
:10358E00161E151E141E131E121E116C000E122274
:10359E00132214221522162217221822010E221A85
:1035AE0020EE23F0070EDE6AE806FDE219501A102F
:1035BE001B101C101D101E101F102010D8B446D04A
:1035CE00010E216E0AD0D89019361A361B361C36CB
:1035DE001D361E361F362036212A20AEF4D7D8903F
:1035EE0023362436253626362736283629362A36E9
:1035FE001950115C1A5012581B5013581C50145865
:10360E001D5015581E5016581F5017582050185838
:10361E00D8A011D01950115E1A50125A1B50135ABD
:10362E001C50145A1D50155A1E50165A1F50175A18
:10363E002050185A2380D89020321F321E321D324D
:10364E001C321B321A321932212EC9D72250D8B44D
:10365E0010D02A1E291E281E271E261E251E241E99
:10366E00236C000E242225222622272228222922FC
:10367E002A2223C011F024C012F025C013F026C058
:10368E0014F027C015F028C016F029C017F02AC074
:10369E0018F01200000E266E000E256E000E1F6E24
:1036AE00000E1E6E02D0184A192A010E246E18C082
:1036BE00F6FF19C0F7FF0800F550200AD8B418D04D
:1036CE00F70E1A6EFF0E1B6E18C0F6FF19C0F7FF2D
:1036DE000800F5501C6E1D6A1A501C261B501D2228
:1036EE001D5004E1050E1C5CD8A002D0000E246E05
:1036FE0024C020F0216A20502110D8B408D0D3D78E
:10370E00000E1F6E010E1E6E184A192A2ED018C0FA
:10371E00F6FF19C0F7FF0800F5501A6E1B6A1B5012
:10372E00000AD8A422D01A502B0AD8B4EDD7060A14
:10373E00D8B4E6D71AD025C011F026C012F0000E6C
:10374E00146E0A0E136ED1EC23F018C0F6FF19C0DA
:10375E00F7FF0800F550115E000E125A300E1124BC
:10376E00256E000E1220266ECFD7D00E1A6EFF0ECB
:10377E001B6E18C0F6FF19C0F7FF0800F5501C6E3F
:10378E001D6A1A501C261B501D221D5006E10A0EE2
:10379E001C5CD8B002D0010E01D0000E226E236A3E
:1037AE0022502310D8A4C7D71E501F10D8A40DD056
:1037BE0025C01AF026C01BF01A1E1B1E1A4A1B2A01
:1037CE001AC018F01BC019F0120025C018F026C040
:1037DE0019F01200000E226E18AE12D0181E171E0F
:1037EE00161E151E141E131E121E116C000E122212
:1037FE00132214221522162217221822010E226ECF
:10380E0020AE10D0201E1F1E1E1E1D1E1C1E1B1E97
:10381E001A1E196C000E1A221B221C221D221E2299
:10382E001F22202219501A101B101C101D101E10C2
:10383E001F102010D8B43CD0010E216E0AD0D890A3
:10384E0019361A361B361C361D361E361F362036D6
:10385E00212A20AEF4D71950115C1A5012581B5061
:10386E0013581C5014581D5015581E5016581F50E2
:10387E00175820501858D8A010D01950115E1A5051
:10388E00125A1B50135A1C50145A1D50155A1E50C2
:10389E00165A1F50175A2050185AD89020321F32DD
:1038AE001E321D321C321B321A321932212ED3D740
:1038BE002250D8B410D0181E171E161E151E141E18
:1038CE00131E121E116C000E122213221422152228
:1038DE0016221722182211C011F012C012F013C0B6
:1038EE0013F014C014F015C015F016C016F017C062
:1038FE0017F018C018F01200136E13C014F0156AEA
:10390E0015BE06D0155010E10A0E145CD8B00CD0BE
:10391E0015BE0AD0155003E11404D8A005D014C06A
:10392E0011F015C012F0120015BE15D0155004E19D
:10393E00100E145CD8A00FD015BE06D015500BE19A
:10394E001A0E145CD8B007D0FA0E1424116EFF0EA6
:10395E001520126E120015BE15D0155004E1200E62
:10396E00145CD8A00FD015BE06D015500BE12A0E50
:10397E00145CD8B007D0F40E1424116EFF0E15206F
:10398E00126E120015BE15D0155004E1300E145CE7
:10399E00D8A00FD015BE06D015500BE13A0E145C10
:1039AE00D8B007D0EE0E1424116EFF0E1520126E35
:1039BE00120015BE15D0155004E1400E145CD8A0AF
:1039CE000FD015BE06D015500BE14A0E145CD8B0C0
:1039DE0007D0E80E1424116EFF0E1520126E120081
:1039EE0015BE15D0155004E1500E145CD8A00FD0A2
:1039FE0015BE06D015500BE15A0E145CD8B007D088
:103A0E00E20E1424116EFF0E1520126E12001168B4
:103A1E00126812001E6E1E5083EC1CF011C01FF0B7
:103A2E0012C020F0195083EC1CF011C021F012C00E
:103A3E0022F01A5083EC1CF011C023F012C024F0B7
:103A4E001B5083EC1CF011C025F012C026F01FC0D5
:103A5E0011F020C012F0000E146E3C0E136ED1EC5D
:103A6E0023F021501124276E22501220286E23C0DD
:103A7E0011F024C012F0000E146E3C0E136ED1EC39
:103A8E0023F025501124296E265012202A6E27501D
:103A9E00295C2F6E28502A58306E2FC011F030C07E
:103AAE0012F0000E146E3C0E136E90EC20F011C04E
:103ABE002BF012C02CF02FC011F030C012F0000EFF
:103ACE00146E3C0E136E13EC21F011C02DF012C0CB
:103ADE002EF01CC0D9FF1DC0DAFF2DC0DEFF2EC098
:103AEE00DDFF20EE02F01C50D9261D50DA222BC02D
:103AFE00DEFF2CC0DDFF1200000E2A14326E000E07
:103B0E002B14336E800E2C14346E7F0E2D14356EE6
:103B1E003250331034103510D8A408D0000E2A6E4F
:103B2E00000E2B6E000E2C6E000E2D6E000E2E143F
:103B3E00326E000E2F14336E800E3014346E7F0EE4
:103B4E003114356E3250331034103510D8A408D0DD
:103B5E00000E2E6E000E2F6E000E306E000E316EA9
:103B6E002DAE09D02A6C2B1ED8B02B2A2C1ED8B005
:103B7E002C2A800E2D5631AE09D02E6C2F1ED8B0A9
:103B8E002F2A301ED8B0302A800E3156000E2A1A37
:103B9E00000E2B1A000E2C1A800E2D1A000E2E1A45
:103BAE00000E2F1A000E301A800E311A2E502A5C7B
:103BBE002F502B5830502C5831502D58D8B002D091
:103BCE00D8901200D880120060C01BF061C01CF0AB
:103BDE0062C01DF063C01EF011C01BF012C01CF0BD
:103BEE0013C01DF014C01EF01BC015F01CC016F043
:103BFE001DC017F01EC018F0180E05D0D890183240
:103C0E00173216321532E82EF9D71550196E1A6A78
:103C1E0019501A10D8A419D0D8901B34156E1C3414
:103C2E00166E1D34176E1E34186E155016101710A2
:103C3E001810D8A405D0000E126E020E116E1200CE
:103C4E00000E126E030E116E120019281A10D8A44F
:103C5E001CD01BC015F01CC016F01DC017F01EC0E6
:103C6E0018F0090ED8901536163617361836E82E77
:103C7E00F9D71550161017101810D8A402D0010E2F
:103C8E0001D0000E116E126A1200000E126E040E9A
:103C9E00116E1200000E1A6E18AE0AD0181E171EE4
:103CAE00161E156C000E162217221822010E1A6E01
:103CBE0014AE0AD0141E131E121E116C000E122208
:103CCE0013221422010E1A1A000E1B6E000E1C6E09
:103CDE00000E1D6E000E1E6E1550161017101810C9
:103CEE00D8B42AD0010E196E06D0D89015361636D5
:103CFE0017361836192A18AEF8D7D8901B361C3638
:103D0E001D361E361550115C16501258175013588A
:103D1E0018501458D8A009D01550115E1650125ACA
:103D2E001750135A1850145A1B80D8901832173245
:103D3E0016321532192EE1D71A50D8B408D01E1EDD
:103D4E001D1E1C1E1B6C000E1C221D221E221BC0C3
:103D5E0011F01CC012F01DC013F01EC014F01200A2
:103D6E00133414341A6E1A50D8A409D0000E116EE2
:103D7E00000E126E000E136E000E146E120011C0A5
:103D8E0015F012C016F013C017F014C018F0200E64
:103D9E0005D0D8901832173216321532E82EF9D7D0
:103DAE001550196E138EFF0E1116FF0E1216FF0E02
:103DBE001316000E1416960E1A5E1AAE0DD01A5069
:103DCE00800A970FD8A0D2D7D8901432133212325D
:103DDE0011321A3EF9D70DD01F0E1A6407D0C6D76E
:103DEE00D89011361236133614361A061A50D8A435
:103DFE00F7D71950D8B408D0141E131E121E116C0A
:103E0E00000E12221322142211C011F012C012F051
:103E1E0013C013F014C014F01200C69A948694883E
:103E2E00000E116E5A0E126E620E136E020E146E8C
:103E3E001EC022F01FC023F020C024F021C025F0A8
:103E4E00020ED8902236233624362536E82EF9D7A0
:103E5E0022C015F023C016F024C017F025C018F0AC
:103E6E00D2EC20F01104C86E000E116E5A0E126EB6
:103E7E00620E136E020E146E1EC022F01FC023F0CF
:103E8E0020C024F021C025F0020ED8902236233611
:103E9E0024362536E82EF9D722C015F023C016F0A9
:103EAE0024C017F025C018F0D2EC20F01104C86E13
:103EBE00800EC76E280EC66E000EC56E120011C0A3
:103ECE0018F012C019F013C01AF014C01BF015062A
:103EDE00D8A0160615280FE11628D8A40CD0000E6F
:103EEE00126E000E116E1200184A192A1A4A1B2A57
:103EFE001506D8A0160618C0D9FF19C0DAFFDF5074
:103F0E00D8B41CD01AC0F6FF1BC0F7FF0800F5503E
:103F1E000009D8B413D015501610D8B40FD018C04D
:103F2E00D9FF19C0DAFFDF50176E1AC0F6FF1BC09B
:103F3E00F7FF0800F5501718D8B4D6D718C0D9FF18
:103F4E0019C0DAFFDF50176E1AC0F6FF1BC0F7FF5D
:103F5E000800F550175C116E126AD8A012061200F6
:103F6E0068A00AD026C01DF027C01EF024C01FF086
:103F7E0025C020F0E2EC22F029BE05D028C02DF09D
:103F8E0029C02EF004D0000E2E6E000E2D6E000EE7
:103F9E002C6E000E2B6E0CD0000E156E200E146EB5
:103FAE0024C016F025C017F04BEC21F02B4A2C2A1A
:103FBE002D502B5C2C50800A2A6E2E50800A2A58C7
:103FCE00D8A0EAD768B00AD026C01DF027C01EF0D0
:103FDE0024C01FF025C020F0E2EC22F026C011F024
:103FEE0027C012F0A8EC23F02D501124246E2E5071
:103FFE001220256E12000600F29EF0B6F0A006D03A
:10400E00000E0101056F010E046FF090F0B8F0A2E2
:10401E001BD000C101F001C102F002C103F003C1C7
:10402E0004F0EE0E056ECF0E066E870E076E3F0E77
:10403E00086ED1EC14F001C000F102C001F103C012
:10404E0002F104C003F1F092F2B8F2A21BD000C14B
:10405E0001F001C102F002C103F003C104F0EE0E43
:10406E00056ECF0E066E870E076E3F0E086ED1ECF4
:10407E0014F001C000F102C001F103C002F104C04E
:10408E0003F1F2926C921100000E1114196E000ED3
:10409E0012141A6E800E13141B6E7F0E14141C6EE7
:1040AE0019501A101B101C10D8A408D0000E116E37
:1040BE00000E126E000E136E000E146E000E15140E
:1040CE00196E000E16141A6E800E17141B6E7F0ECC
:1040DE0018141C6E19501A101B101C10D8A408D0DE
:1040EE00000E156E000E166E000E176E000E186E78
:1040FE00155011180AE11650121807E1175013182F
:10410E0004E118501418D8B402D0D8901200D880F8
:10411E001200000E166E14AE06D0136C141ED8B01C
:10412E00142A010E166E12AE06D0116C121ED8B0E5
:10413E00122A010E161A000E186E000E176E13506C
:10414E001410D8B41CD0010E156E04D0D8901336AE
:10415E001436152A14AEFAD7D890173618361350CF
:10416E00115C14501258D8A005D01350115E145083
:10417E00125A1780D89014321332152EEDD71650CE
:10418E00D8B404D0176C181ED8B0182A17C011F066
:10419E0018C012F01200000E196E000E1A6E000EEC
:1041AE001B6E000E1C6E1550161017101810D8B47A
:1041BE002AD0010E1D6E06D0D8901536163617363B
:1041CE0018361D2A18AEF8D7D89019361A361B365F
:1041DE001C361550115C16501258175013581850A3
:1041EE001458D8A009D01550115E1650125A1750F7
:1041FE00135A1850145A1980D89018321732163292
:10420E0015321D2EE1D719C011F01AC012F01BC0C5
:10421E0013F01CC014F01200000E166E12AE06D073
:10422E00116C121ED8B0122A010E166E14AE04D0E6
:10423E00136C141ED8B0142A13501410D8B418D0FE
:10424E00010E156E04D0D89013361436152A14AEFE
:10425E00FAD71350115C14501258D8A004D0135032
:10426E00115E1450125AD89014321332152EF1D703
:10427E001650D8B404D0116C121ED8B0122A11C028
:10428E0011F012C012F0120016501710D8B404D04C
:10429E0016501710D8A404D0145002EC24F01200BB
:1042AE0020EE04F01650D9261750DA22DE50DE101A
:1042BE00D8B416D020EE04F01650D9261750DA22B4
:1042CE0010EE02F01650E1261750E222DE50E65CA8
:1042DE00E650800A1C6EDE50800A1C58D8B01200C0
:1042EE0020EE02F01650D9261750DA22DE2A000EE2
:1042FE00DD221200600EF66E480EF76E000EF86E9E
:10430E000900F5CF75F10900F5CF76F10900F5CF6B
:10431E0077F103EE00F0C80EEE6AE806FDE102EE5C
:10432E0000F0C80EEE6AE806FDE101EE00F05C0E4C
:10433E00EE6AE806FDE10001F36BF26B00EE5CF055
:10434E00100EEE6AE806FDE16C906C92000EF86EAF
:10435E000001C5EF11F0DEC05AF0DFC05BF0000EB9
:10436E000001F36F000EF26F13D0DCC0B8F0DDC0A9
:10437E00B9F05A0EBA6F000EBB6FE0C0BCF0E1C0D0
:10438E00BDF03EEC0DF00001B851F227B951F32308
:10439E005AC0F6FF5BC0F7FF0800F5500009D8A41D
:1043AE00E4D7F2C0DCF0F3C0DDF01200126E125052
:1043BE00F00B116E8C500F0B8C6E11508C108C6E8E
:1043CE008C96530EE82EFED700F08C86C80E00D0C9
:1043DE00E82EFDD71238F00B126E1250F00B116E44
:1043EE008C500F0B8C6E11508C108C6E8C96530E55
:1043FE00E82EFED700F08C86C80E00D0E82EFDD732
:10440E00120013C017F014C018F011C019F012C02A
:10441E001AF01750156E1850166E174A182A15C036
:10442E00F6FF16C0F7FF000EF86E19C0D9FF1AC0BE
:10443E00DAFF194A1A2A0F0EF76403D00800F55056
:10444E0005D0F6CFE1FFF7CFE2FFE750DF6EDF508A
:10445E00D8B41200DED7BF0E196EFF0E1A6E17C03B
:10446E001BF018C01CF019501B261A501C221C5091
:10447E0006E11A0E1B5CD8B002D0010E01D0000E60
:10448E001D6E1E6A1D501E10D8B406D0200E1710B9
:10449E00176E1850186E120017C017F018C018F0CB
:1044AE0012009F0E196EFF0E1A6E17C01BF018C069
:1044BE001CF019501B261A501C221C5006E11A0E15
:1044CE001B5CD8B002D0010E01D0000E1D6E1E6A0C
:1044DE001D501E10D8B405D05F0E1714176E186A33
:1044EE00120017C017F018C018F01200000E2E1A86
:1044FE00000E2F1A000E301A800E311A2AC011F03B
:10450E002BC012F02CC013F02DC014F02EC015F0DD
:10451E002FC016F030C017F031C018F04BEC13F06E
:10452E0011C02AF012C02BF013C02CF014C02DF0C5
:10453E001200C30E146ECD0EE82EFED7142EFCD72D
:10454E0000F0330E15EC24F0320E15EC24F0280E8C
:10455E0015EC24F00C0E15EC24F0060E15EC24F0E0
:10456E00010E15EC24F0C30E146ECD0EE82EFED700
:10457E00142EFCD700F01200010E176E200E11182B
:10458E001210D8B414D0F70E136EFF0E146E11C0A5
:10459E0015F012C016F01350152614501622165090
:1045AE0004E1050E155CD8A002D0000E176E17C0E0
:1045BE0011F0126A1200000E236E000E226E0BD046
:1045CE0021C014F0156A1FC016F020C017F04BEC76
:1045DE0021F0224A232A22501D24D96E23501E2058
:1045EE00DA6EDF50216E2150D8B41200E9D79F0E3B
:1045FE00136EFF0E146E200E1110156E000E12109B
:10460E00166E1350152614501622165006E11A0E69
:10461E00155CD8B002D0010E01D0000E116E126AD8
:10462E00120024BE05D0245010E12304D8B00DD0C2
:10463E0023C025F024C026F0251E261E254A262A34
:10464E0025C023F026C024F0120023C023F024C07E
:10465E0024F012009F0E136EFF0E146E11C015F093
:10466E0012C016F01350152614501622165006E1DD
:10467E001A0E155CD8B002D0010E01D0000E116ECC
:10468E00126A1200BF0E136EFF0E146E11C015F0DB
:10469E0012C016F01350152614501622165006E1AD
:1046AE001A0E155CD8B002D0010E01D0000E116E9C
:1046BE00126A1200D00E136EFF0E146E11C015F09A
:1046CE0012C016F01350152614501622165006E17D
:1046DE000A0E155CD8B002D0010E01D0000E116E7C
:1046EE00126A1200196E19C01AF01B6A17C01CF05C
:1046FE001D6A1AC011F01BC012F0000E146E0A0EC5
:10470E00136ED1EC23F01C501124176E1D50122085
:10471E00186E12001150121013101410D8B408D0C5
:10472E00000E111A000E121A000E131A800E141A11
:10473E0011C011F012C012F013C013F014C014F017
:10474E00120011C013F012C014F002D0114A122A36
:10475E0011C0D9FF12C0DAFFDF50D8A4F7D713501B
:10476E00115C116E14501258126E1200E40E0001FC
:10477E00EC6F000EED6F000EDC6F000EDD6FE2C011
:10478E00DEF0E3C0DFF0EC0EE06F000EE16FB2EC96
:10479E0021F0120011501302F3CF15F0F4CF16F0E2
:1047AE0011501402F350162612501302F35016260F
:1047BE0015C011F016C012F01200126E0CEC24F09F
:1047CE00C5860CEC24F0C9CF13F00CEC24F012B01B
:1047DE0002D0C59A01D0C58AC58813501200010EA9
:1047EE0015EC24F0410E146EEE0EE82EFED7142EAC
:1047FE00FCD700D01200136E8C841350DDEC21F028
:10480E00C80E00D0E82EFDD71200C7B4FED7C5CF14
:10481E0011F01F0E1116D8B41200F7D7136E8C9428
:10482E001350DDEC21F012000CEC24F012C0C9FF85
:10483E001200C00E15EC24F01200800E15EC24F0C0
:10484E0012000CEC24F0C58412000CEC24F0C58090
:05485E0012004E1414CD
:020000040020DA
:08000000FFFFFFFFFFFFFFFF00
:020000040030CA
:0E000000FF061F1EFF8181FF0FC00FE00F40A3
:00000001FF
